:100000000C942A000C9447000C9447000C94470071
:100010000C9447000C9447000C9447000C94470044
:100020000C9447000C9482000C9447000C944700F9
:100030000C9447000C9447000C9447000C94470024
:100040000C9447000C9447000C9447000C94470014
:100050000C94470011241FBECFE5D4E0DEBFCDBF16
:1000600010E0A0E6B0E0E6E8F4E002C005900D92F2
:10007000A236B107D9F720E0A2E6B0E001C01D9298
:10008000A836B207E1F70E94F3000C9441020C94E9
:10009000000083E389B98AB188618AB980B586682E
:1000A00080BD08955D9BFECF8CB908955F9BFECF08
:1000B0008CB1089589B7816089BF789482E083BF4D
:1000C00012BEA09AA8988A9A929808950196969539
:1000D0008795A89A009731F022E02A95F1F700C0A1
:1000E0000197D1F7A898089581E090E0909363007C
:1000F00080936200929A08951092630010926200B9
:10010000929808951F920F920FB60F9211242F9379
:100110003F934F935F936F937F938F939F93AF938F
:10012000BF93EF93FF938091640090916500A0913D
:100130006600B09167000196A11DB11D8093640017
:1001400090936500A0936600B093670040916000B3
:100150005091610060E070E084179507A607B7072B
:1001600098F08091620090916300892B69F085E09E
:1001700090E00E9466001092640010926500109258
:1001800066001092670002C087EA82BFFF91EF917C
:10019000BF91AF919F918F917F916F915F914F919F
:1001A0003F912F910F900FBE0F901F90189590EDDB
:1001B000980F9A3028F490E09C012053310911C027
:1001C0009FE9980F963028F490E09C01275531095B
:1001D00008C09FEB980F963020F490E09C012753C5
:1001E0003109C9010895CF93DF93CDB7DEB7AA9740
:1001F0000FB6F894DEBF0FBECDBF0E9449000E942B
:100200005A00812C912C00E010E05E018CE1A80ED8
:10021000B11C0F2EF4E63F2EF02D6E01E2E2CE0E61
:10022000D11C7E01F6E1EF0EF11C212C07C001E08C
:10023000122D04C0812C912C00E010E00E94560089
:100240008436A9F301151105C9F3E1E0F0E0EC0FE4
:10025000FD1FE80DF91D80838FEF881A980AE9E0E9
:100260008E16910459F789810E94D7003C014E01F6
:10027000F3E08F0E911C8E010A5E1F4FF4018191F5
:100280004F010E94D700F801819391938F01AE1620
:10029000BF06A1F78E899F89389E2001399E500C98
:1002A0001124888D998DAC01440F551F9C01220F9C
:1002B000331F220F331F220F331FCA01820F931FD8
:1002C000840D951D4A8C5B8C480E591E4E01F7E03B
:1002D0008F0E911C8E01045E1F4FF40181914F011E
:1002E0000E94D700F801819391938F01CE16DF060B
:1002F000A1F78C8D9D8D389EA001399E500D112443
:100300008E8D9F8DBC01660F771F9C01220F331FBE
:10031000220F331F220F331FCB01820F931F840F35
:10032000951F28A139A1820F931F9301240D351D1C
:100330008217930709F07ECF80E197E2B2010E9415
:10034000ED0170936100609360006A94672819F46E
:100350000E94740002C00E947C003A864AE050E08D
:10036000B6018DEA90E00E9401028AA18B878BA1E1
:100370008C878CA18D878CE28E874AE050E0BE018D
:100380006B5D7F4F88EC91E00E9401028DA18F8709
:100390008EA1888B8FA1898BECE2EA8B4AE050E03A
:1003A000BE01685D7F4F85E792E00E94010288A54B
:1003B0008B8B89A58C8B8AA58D8B8E01065F1F4F39
:1003C000F80181918F010E9452000E151F05C1F79F
:1003D000812C912C00E010E031CFAA1BBB1B51E116
:1003E00007C0AA1FBB1FA617B70710F0A61BB70BA5
:1003F000881F991F5A95A9F780959095BC01CD014A
:1004000008954532510520F4423010F00C940C024E
:10041000FB011082CB010895BB274A3031F49923A8
:1004200022F4BDE2909581959F4F0C941802BB2752
:10043000FB015527AA27880F991FAA1FA41710F0A0
:10044000A41B83955051B9F7A05DAA3308F0A95DAC
:10045000A193009779F7B111B1931192CB010C944C
:100460003102DC01FC01672F71917723E1F73297AC
:1004700004C07C916D9370836291AE17BF07C8F37F
:060480000895F894FFCF7F
:020486007D00F7
:00000001FF
