:100000000C942A000C9447000C9447000C94470071
:100010000C9447000C9447000C9447000C94470044
:100020000C94DB000C9486000C9447000C94470061
:100030000C9447000C9447000C9447000C94470024
:100040000C9447000C9447000C9447000C94470014
:100050000C94470011241FBECFE5D4E0DEBFCDBF16
:1000600010E0A0E6B0E0E2E3F5E002C005900D92FA
:10007000A236B107D9F720E0A2E6B0E001C01D9298
:10008000AA36B207E1F70E9439010C9497020C944A
:10009000000083E389B98AB188618AB980B586682E
:1000A00080BD08955D9BFECF8CB908955F9BFECF08
:1000B0008CB1089589B7856089BF789482E083BF49
:1000C00012BE83E08EBD1DBC1CBCA09AA8988A9A63
:1000D00092980895019696958795A89A009731F081
:1000E00022E02A95F1F700C00197D1F7A89808956A
:1000F00081E090E09093650080936400929A089567
:100100001092650010926400929808951F920F92C9
:100110000FB60F9211242F933F934F935F936F93DA
:100120007F938F939F93AF93BF93EF93FF938091B0
:10013000660090916700A0916800B09169000196F7
:10014000A11DB11D8093660090936700A093680085
:10015000B0936900409160005091610060E070E0F0
:1001600084179507A607B70798F0809164009091CF
:100170006500892B69F085E090E00E946A0010928A
:10018000660010926700109268001092690002C029
:1001900087EA82BFFF91EF91BF91AF919F918F91BD
:1001A0007F916F915F914F913F912F910F900FBE73
:1001B0000F901F9018951F920F920FB60F92112457
:1001C0002F933F938F939F9380916400909165004C
:1001D000892B29F092B384E0892782BB01C09298D1
:1001E0008091620090916300009729F4109265005D
:1001F000109264000BC021E030E030936500209342
:100200006400019790936300809362009F918F91A7
:100210003F912F910F900FBE0F901F90189587B1AF
:10022000816487B986B1836886B90895369A349B0C
:10023000FECF349A84B195B1089590ED980F9A301D
:1002400028F490E09C012053310911C09FE9980FD8
:10025000963028F490E09C012755310908C09FEBA7
:10026000980F963020F490E09C0127533109C90182
:100270000895CF93DF93CDB7DEB7AA970FB6F89462
:10028000DEBF0FBECDBF0E9449000E945A000E94EF
:100290000F01812C912C00E010E05E018CE1A80E92
:1002A000B11C0F2EF4E63F2EF02D6E01E2E2CE0ED1
:1002B000D11C7E01F6E1EF0EF11C212C07C001E0FC
:1002C000122D04C0812C912C00E010E00E945600F9
:1002D0008436A9F301151105C9F3E1E0F0E0EC0F54
:1002E000FD1FE80DF91D80838FEF881A980AE9E059
:1002F0008E16910459F789810E941D013C014E011F
:10030000F3E08F0E911C8E010A5E1F4FF401819164
:100310004F010E941D01F801819391938F01AE1648
:10032000BF06A1F78E899F89389E2001399E500C07
:100330001124888D998DAC01440F551F9C01220F0B
:10034000331F220F331F220F331FCA01820F931F47
:10035000840D951D4A8C5B8C480E591E4E01F7E0AA
:100360008F0E911C8E01045E1F4FF40181914F018D
:100370000E941D01F801819391938F01CE16DF0633
:10038000A1F78C8D9D8D389EA001399E500D1124B2
:100390008E8D9F8DBC01660F771F9C01220F331F2E
:1003A000220F331F220F331FCB01820F931F840FA5
:1003B000951F28A139A1820F931F9301240D351D8C
:1003C0008217930709F07ECF8091620090916300BD
:1003D0008330910528F40196909363008093620026
:1003E00080E197E2B2010E94430270936100609342
:1003F00060006A94672819F40E94780002C00E9485
:1004000080003A860E9416018C014AE050E0B60155
:100410000E9457028AA18B878BA18C878CA18D8724
:100420008CE28E874AE050E0BE016B5D7F4F88EC26
:1004300091E00E9457028DA18F878EA1888B8FA19A
:10044000898BECE2EA8B4AE050E0BE01685D7F4FA9
:10045000C80188539E4F0E94570288A58B8B89A59F
:100460008C8B8AA58D8B8E01065F1F4FF8018191C1
:100470008F010E9452000E151F05C1F7812C912C8F
:1004800000E010E023CFAA1BBB1B51E107C0AA1F4D
:10049000BB1FA617B70710F0A61BB70B881F991F25
:1004A0005A95A9F780959095BC01CD0108954532E4
:1004B000510520F4423010F00C946202FB011082CE
:1004C000CB010895BB274A3031F4992322F4BDE2D1
:1004D000909581959F4F0C946E02BB27FB01552789
:1004E000AA27880F991FAA1FA41710F0A41B839591
:1004F0005051B9F7A05DAA3308F0A95DA193009708
:1005000079F7B111B1931192CB010C948702DC0100
:10051000FC01672F71917723E1F7329704C07C913A
:100520006D9370836291AE17BF07C8F30895F89476
:02053000FFCFFB
:020532007D004A
:00000001FF
