:100000000C942A000C9447000C9447000C94470071
:100010000C9447000C9447000C9447000C94470044
:100020000C9447000C9472000C9447000C94470009
:100030000C9447000C9447000C9447000C94470024
:100040000C9447000C9447000C9447000C94470014
:100050000C94470011241FBECFE5D4E0DEBFCDBF16
:1000600010E0A0E6B0E0E2E5F3E002C005900D92FA
:10007000A236B107D9F720E0A2E6B0E001C01D9298
:10008000A836B207E1F70E94E3000C94A7010C9494
:10009000000083E389B98AB188618AB980B586682E
:1000A00080BD08955D9BFECF8CB908955F9BFECF08
:1000B0008CB1089589B7816089BF789482E083BF4D
:1000C00012BEA09AA8980895019696958795A89A29
:1000D000009731F022E02A95F1F700C00197D1F79F
:1000E000A89808951F920F920FB60F9211242F9384
:1000F0003F934F935F936F937F938F939F93AF93B0
:10010000BF93EF93FF938091640090916500A0915D
:100110006600B09167000196A11DB11D8093640037
:1001200090936500A0936600B093670040916000D3
:100130005091610060E070E084179507A607B7074B
:1001400098F08091620090916300892B69F085E0BE
:1001500090E00E946400109264001092650010927A
:1001600066001092670002C087EA82BFFF91EF919C
:10017000BF91AF919F918F917F916F915F914F91BF
:100180003F912F910F900FBE0F901F90189590EDFB
:10019000980F9A3028F490E09C012053310911C047
:1001A0009FE9980F963028F490E09C01275531097B
:1001B00008C09FEB980F963020F490E09C012753E5
:1001C0003109C9010895CF93DF93CDB7DEB76597A5
:1001D0000FB6F894DEBF0FBECDBF0E9449000E944B
:1001E0005A00E12CF12C00E010E05E0186E1A80E3F
:1001F000B11C0F2EF4E63F2EF02D6E01E0E1CE0E85
:10020000D11C55245394412C02C0052D142D0E945D
:1002100056008137D1F301151105C9F3E1E0F0E093
:10022000EC0FFD1FEE0DFF1D8083FFEFEF1AFF0A9D
:1002300089E0E816F10459F71981812F0E94C7005F
:100240004C01812F0E94520080E20E9452007E01E8
:10025000E3E0EE0EF11C8E01005F1F4FF70171907D
:100260007F01872D0E94C700F801819391938F0130
:10027000872D0E9452000A151B0581F780E20E941B
:10028000520088899989389E3001399E700C11245A
:100290008A899B89AC01440F551F9C01220F331F93
:1002A000220F331F220F331FCA01820F931F860DA7
:1002B000971D6C887D88680E791E7E01F7E0EF0E31
:1002C000F11C8E01065F1F4FF70121907F01822DE7
:1002D0000E94C700F801819391938F01822D0E94A3
:1002E00052000C151D0581F78A859B85389E80017B
:1002F000399E100D11248C859D85AC01440F551F2E
:100300009C01220F331F220F331F220F331FCA01FC
:10031000820F931F800F911F0E851F85080F191FD5
:1003200080E20E945200860C971C0815190521F4E2
:1003300081E30E94520003C080E30E9452008DE0DE
:100340000E945200E12CF12C00E010E060CFF89404
:02035000FFCFDD
:020352007D002C
:00000001FF
